:020000040800F2
:10000000400A0020010100083B1D0008651C000893
:10001000391D000889060008812100080000000041
:100020000000000000000000000000005F1D00084C
:1000300099060008000000005D1D0008611D000811
:100040001B0100081B0100081B0100081B01000820
:100050001B0100081B0100081B0100081B01000810
:100060001B010008450C00081B0100081B010008CB
:100070001B0100088D0600081B0100081B01000879
:100080001B0100081B0100081B0100081B010008E0
:100090001B0100081B0100081B0100081B010008D0
:1000A0001B0100081B0100081B0100081B010008C0
:1000B0001B0100081B0100081B0100081B010008B0
:1000C0001B0100081B0100081B0100081B010008A0
:1000D0001B01000819210008252100081B01000848
:1000E0001B0100081B0100081B010008DFF80CD0F1
:1000F00000F03AFA00480047052B0008400A0020AB
:100100000648804706480047FEE7FEE7FEE7FEE7B1
:10011000FEE7FEE7FEE7FEE7FEE7FEE7D51D000887
:10012000ED000008202A04DB203A21FA02F0002129
:10013000704721FA02F3D040C2F1200291400843F7
:100140001946704730B505462A460B4612F8010B92
:1001500013F8014B08B1A042F8D01CB1002802D01E
:100160006D1CF1E7284630BD30B50B460146002036
:100170002022012409E021FA02F59D4205D303FA69
:1001800002F5491B04FA02F52844151EA2F10102EA
:10019000F1DC30BD2DE9F05F0546002092469B461C
:1001A00088460646814640241BE02846414647468D
:1001B0002246FFF7B7FF53465A46C01A914110D363
:1001C00011461846224600F0E1F92D1A67EB0108A6
:1001D0004F4622460120002100F0D8F917EB000914
:1001E0004E41201EA4F10104DFDC484631462A4678
:1001F0004346BDE8F09F2DE9FE4F804681EA0300AB
:10020000C00F0C46009021F0004123F00045B8EBF0
:100210000200A94105D24046214690461C460B46A5
:10022000024623F00040104347D0270DC7F30A00D1
:10023000C3F30A510290401A019040286BDAC3F3CD
:10024000130040F4801B0098924620B10023D2EBAB
:10025000030A63EB0B0B01985946C0F1400250466C
:1002600000F094F906460D4650465946019A00F0B2
:100270009CF910EB08006141002487EA115284EADE
:10028000E7731A4340D0009A62B3019A012A4FEAF9
:10029000075215DC001B61EB02014FF0004202EA3D
:1002A0000752CDE90042001C41F5801132462B4631
:1002B00000F09CF903B0BDE8F08F40462146F9E715
:1002C000001B61EB0201001C41F5801300185B412B
:1002D0002018A2F5001747EB030140EAD570B619C4
:1002E0006D4111E06D084FEA360645EAC0754FEAE8
:1002F0000752001B61EB0201001C41F58011490807
:100300004FEA30000019514132462B4603B0BDE898
:10031000F04F00F05CB90098012240000023D0EBC0
:10032000020263EBE073009821464FEAE074B8EBF9
:10033000000061EB0401E9E783F000435BE781F033
:10034000004158E72DE9FE4F81EA030404F0004420
:1003500021F0004100944FF0000B23F0004350EADD
:1003600001045ED052EA03045BD0C3F30A54C1F324
:100370000A552C44A4F2F3340194A0FB0254C1F3B7
:10038000130141F48011C3F3130343F4801301FB01
:10039000024400FB034E840A970A44EA815447EA68
:1003A0008357A4FB076802958D0A05FB07854FEA72
:1003B000932C04FB0C542705029D4FEA065847EA8C
:1003C0001637B5EB08056EEB070C870E920E47EA61
:1003D000811742EA8312A7FB0201B6EB0B0164EB23
:1003E00000042B0D43EA0C335E1844EB1C50DA4634
:1003F0005146E7FB0201C5F313044FEA0B3343EA0E
:1004000014534FEA0432019C43EA0603A4F10C049E
:100410000294009CCDE900B400F0E8F803B0BDE818
:10042000F08F00200146F9E72DE9F04D81EA030441
:1004300004F0004B21F0004514464FF0000A23F071
:10044000004150EA050220D054EA01021DD0C5F354
:100450000A570246C5F31303C1F31300C1F30A564A
:1004600040F4801543F48013A7EB0608101BD64612
:1004700008F2FD3873EB050002D308F1010801E032
:1004800092185B41B8F1000F03DA00200146BDE885
:10049000F08D00204FF48011064684460EE0171BB5
:1004A00073EB050705D3121B63EB050306434CEA08
:1004B000010C49084FEA300092185B4150EA0107ED
:1004C000EDD152EA030012D082EA040083EA05016A
:1004D000084305D0101BAB4106D20122002306E0E1
:1004E00000224FF0004302E06FF0010253101AEBBC
:1004F00006004CEB085110EB0A0041EB0B01BDE884
:10050000F04D00F064B8C1F30A52C1F3130140F298
:10051000FF3341F480119A4202DA0020014670470D
:1005200040F233439A42A2F2334202DC5242FFF7D6
:10053000F9BD00F02BB8000030B5041E71F10004C5
:1005400004DB4FF00044404264EB0101141E73F1E0
:10055000000405DB1C464FF00043524263EB0403EA
:10056000994208BF904230BD064C074D06E0E06856
:1005700040F0010394E8070098471034AC42F6D3EA
:10058000FFF7B8FD302C0008502C0008202A04DBAF
:10059000203A00FA02F1002070479140C2F1200396
:1005A00020FA03F3194390407047202A06DBCB174B
:1005B000203A41FA02F043EAE07306E041FA02F31E
:1005C000D040C2F12002914008431946704710B54F
:1005D000141E73F1000408DA401C41F10001921866
:1005E0005B411A4301D120F0010010BD2DE9F04D0F
:1005F00092469B4611B1B1FA81F202E0B0FA80F264
:1006000020329046FFF7C2FF04460F4640EA0A0038
:1006100041EA0B0153465A46084313D0114653EAA8
:10062000010019D0C8F140025046FFF77BFD054696
:100630000E46504659464246FFF7A8FF084305D0EC
:10064000012004E020463946BDE8F08D0020054336
:1006500046EAE0762C4337430A986305E40AA0EBA8
:1006600008000022FD0A44EA47540A3002D500205F
:100670000146E9E7010510196941DDE9084500195E
:100680006941BDE8F04DA2E7FEE70000014800F037
:1006900029BB0000F40100207047000070B5002461
:1006A000012240210D4800F00AFD4FF47A752846DA
:1006B00000F0F4FB2B46002209A10AA000F038F854
:1006C00008B1012070BD00F067F9284600F0E6FB94
:1006D000641CE4B20A2CEDD3002070BD001401406C
:1006E0004F4B00004154000030B585B000240BA1F1
:1006F000684601F057FD41F288352B4600220BA1D8
:10070000684600F015F810B1012005B030BD641C3A
:10071000E4B20A2CF1D30020F7E7000041542B4348
:10072000574155544F434F4E4E3D31004F4B000003
:100730002DE9F041174C0E461F46B4F8001415463B
:100740006FF30E01A4F80014024613A1144800F040
:1007500057FA56EA050019D0384600F09FFBB4F866
:1007600000140020C1F30E01605421460DA001F0D9
:1007700009FD2EB1314625B12046FFF7E3FC28B92B
:1007800029460448FFF7DEFC002800D00120BDE820
:10079000F08100003802002025730D0A00000000DF
:1007A000004400400A25730030B585B0002408B12C
:1007B000012200E000220BA1684601F0F3FC4FF497
:1007C000FA752B4600220BA16846FFF7B1FF10B166
:1007D000012005B030BD641CE4B20A2CF1D3002026
:1007E000F7E7000041542B4349504D55583D2564CF
:1007F000000000004F4B000010B54FF4FA730022C8
:100800000DA10EA0FFF794FFA0B110A11248FFF7B1
:1008100099FC08B1022010BD10A10F48FFF792FC0F
:1008200008B1032010BD10A10B48FFF78BFC08B1E5
:10083000042010BD002010BD4F4B000041542B433D
:1008400049505354415455530000000053544154EF
:1008500055533A320D0A00003802002053544154D7
:1008600055533A330D0A00005354415455533A340A
:100870000D0A00002DE9F0410D460646002440F621
:10088000C41726B1012E0AD0022E1BD10FE03B4621
:1008900010A213A10DB113A010E016A00EE03B466C
:1008A0000CA20FA10DB116A008E019A006E03B466E
:1008B00008A20BA10DB119A000E01CA0FFF738FFA2
:1008C000002804D1641CE4B20A2CDAD30020BDE86D
:1008D000F08100006E6F206368616E676500000044
:1008E0004F4B000041542B43574D4F44455F444507
:1008F000463D310041542B43574D4F44453D310057
:1009000041542B43574D4F44455F4445463D3200CB
:1009100041542B43574D4F44453D320041542B43E6
:10092000574D4F44455F4445463D330041542B43AA
:10093000574D4F44453D330070B5154D04460E46A6
:10094000B5F800046FF30E00A5F8000454EA0600A1
:100950001BD0104600F0A2FAB5F800140020C1F335
:100960000E016854287818B129460AA001F00AFC43
:100970002CB1214626B10648FFF7E4FB28B93146E1
:100980000348FFF7DFFB002800D0012070BD000006
:10099000380200200A25730010B5084C00224021BF
:1009A000204600F08CFB4FF4FA7000F077FA2046F6
:1009B0000122BDE81040402100F081BB001401403D
:1009C00070B52BA001F0DEFBFFF768FE10B130A080
:1009D00001F0D8FB32A001F0D5FB01210020FFF788
:1009E00049FF10B130A001F0CDFB37A001F0CAFBE8
:1009F000FFF77AFE10B136A001F0C4FB3CA001F075
:100A0000C1FB0020FFF7D0FE00F0B0F80028FBD0BB
:100A100039A001F0B7FB40A001F0B4FB00244FF473
:100A20007A752A4600213EA0FFF786FF18B9641C9C
:100A3000E4B2782CF5D3782C10D000BF00F0BCF8CD
:100A40000028FBD0FFF7D8FE0028FBD037A001F02C
:100A500099FB38A001F096FB012070BD3BA001F08E
:100A600091FB00BF00F0A8F80028FBD0002070BD6B
:100A70000AD5FDD4DAD6C7C4DCC5E4CDF820455389
:100A80005038323636202E2E2E2E2E2E0A00000002
:100A90000A41542074657374204F4B0A0000000013
:100AA0000A3C2031203E0A000A455350383236367F
:100AB0005F4E65745F4D6F64655F43686F6F73650C
:100AC000204F4B0A000000000A3C2032203E0A0062
:100AD0000A455350383236365F4175746F436F6E36
:100AE0006E6563745F535441204F4B0A0000000051
:100AF0000A3C2033203E0A000A455350383236362D
:100B00005F536D617274436F6E6669675F537461A2
:100B10007274200A000000000A3C2034203E0A00C3
:100B2000636F6E6E65637465640000000A3C203577
:100B3000203E0A000AD6C7C4DCC5E4CDF8204553E0
:100B4000503832363620CDEAB1CF0A000A4553502C
:100B5000383236365F536D617274436F6E66696703
:100B60002054696D654F7574200A000030B587B058
:100B700000240BA1684601F015FB40F6B8352B4662
:100B800000220CA16846FFF7D3FD10B1012007B089
:100B900030BD641CE4B20A2CF1D30020F7E700005A
:100BA00041542B43575354415254534D4152543D99
:100BB000330000004F4B000030B587B000240BA17C
:100BC000684601F0EFFA40F6B8352B4600220BA13B
:100BD0006846FFF7ADFD10B1012007B030BD641CC1
:100BE000E4B20A2CF1D30020F7E7000041542B4374
:100BF0005753544F50534D41525400004F4B000037
:100C00000FB44FF4947130B5CBB06C4650AB204666
:100C10004F9A01F0DBFA0A4D0BE02146641CFF23DA
:100C20000122074800F0C0FF28680168C94309068F
:100C3000FBD420780028F0D14BB030BC5DF814FB19
:100C4000B4000020082000F04BB9000010B590F867
:100C500021100024022903D00421816301243DE0F6
:100C600001680A6822F00E020A6001680A6822F030
:100C700001020A601A4A0168914201D1012121E072
:100C8000174A1432914201D110211BE0144A283234
:100C9000914201D1891515E0114A3C32914201D1AE
:100CA00089140FE00E4A5032914202D14FF4803144
:100CB00008E00B4A6432914202D14FF4801101E006
:100CC0004FF08071064A083A5160012180F82110E6
:100CD000002180F82010416B01B18847204610BDEB
:100CE000080002402DE9F05FC16B0C6801680B68D9
:100CF000D0F840C0042202FA0CF2494DDFF824A1DA
:100D0000494E4A4FDFF828B1DFF828E122422CD0C3
:100D10005A072AD50A68920603D40A6822F0040208
:100D20000A600168A94201D1042219E0514501D1AC
:100D3000402215E0B14202D14FF4806210E0B94286
:100D400002D14FF480420BE0594502D14FF480228A
:100D500006E0714502D14FF4800201E04FF080625D
:100D60002F4908394A60C16A3BE04FF0020808FA8F
:100D70000CF818EA040F4FF000094FF0010235D0CB
:100D80005FEA837832D50B689B0605D40B6823F0A5
:100D90000A030B6080F821200168A94201D10222D8
:100DA00019E0514501D1202215E0B14202D14FF4A2
:100DB000007210E0B94202D14FF400520BE05945E5
:100DC00002D14FF4003206E0714502D14FF4001217
:100DD00001E04FF00072124908394A6080F8209013
:100DE000816A00291AD0BDE8F05F0847082505FA96
:100DF0000CF5254212D01B0710D50B6823F00E030B
:100E00000B6090F84010C36B02FA01F159608263E5
:100E100080F8212080F82090016BE2E7BDE8F09F88
:100E2000080002401C000240300002404400024022
:100E3000580002406C00024030B548B308C815495C
:100E400014221944B1FBF2F18900C1631249816394
:100E5000022141771A6843F6F0718A43D0E9001401
:100E60002143D0E902452C432143046921434469CD
:100E70002143846921431143196000214162816249
:100E8000C16201634163012242770177084630BDA8
:100E9000012030BDF8FFFDBF0000024070B50446E0
:100EA00000F012F90546601C02D0044800780444A2
:100EB00000F00AF9401BA042FAD370BD04000020E4
:100EC00010B5082807D10821034800F0F3F80128DD
:100ED00001D10249087010BD000C0140140000202F
:100EE000044910B50A68024202D00860FFF7E8FF23
:100EF00010BD0000140401402DE9F84FDFF890A167
:100F000000220AF1040B144601274FF00F090BF1E0
:100F1000040E00BF0B6807FA04F52B40AB4274D1F6
:100F2000DFF870C14E68A6EB0C0866452BD00DDCCF
:100F3000032E34D005DC36B3012E19D0022E2FD16A
:100F40001BE0112E16D0122E2AD119E0B8F5881FF9
:100F500019D006DCB8F5803F15D0B8F5801F1FD139
:100F600011E0B8F5001F0ED0B8F5041F18D10AE043
:100F7000CA6815E0CA68121D12E0CA6808320FE09C
:100F8000CA680C320CE08A682AB1012A4FF00802C4
:100F900003D0456104E0042202E0056100E0002284
:100FA000FF2B01D8064601E000F104064FEA840554
:100FB00001D9A5F12005D6F800C009FA05F82CEAF8
:100FC000080C02FA05F54CEA050CC6F800C04D689D
:100FD000ED0057D5304DAE6946F00106AE61AD6902
:100FE00024F0030605F0010500952C4D06EB050CD9
:100FF000DCF80850A6074FEA167809FA08F6B54358
:10100000274EB04202D1002610E03BE0254EB04210
:1010100001D101260AE0244EB04201D1022605E0AA
:10102000224EB04201D1032600E0042606FA08F65B
:101030002E43CCF808604D68DAF80060ED035546A1
:1010400001D51E4300E09E432E604D68DBF8006032
:10105000AD035D4601D51E4300E09E432E604D6802
:10106000DEF80060ED02754601D51E4300E09E43A8
:101070002E604D68AD020E4D2E6801D51E4300E076
:101080009E432E60641C102CFFF444AFBDE8F88F23
:101090000004014000001110001002400000014057
:1010A00000080140000C0140001001400014014004
:1010B0000C0401408068084000D0012070470AB14C
:1010C000016170470904FBE7014880687047000030
:1010D0000400002002488168027811448160704752
:1010E00004000020074810B5016841F010010160BC
:1010F000032000F09DF8002000F006F800F024F82E
:10110000002010BD0020024070B50D4D04464FF484
:101110007A712878B1FBF0F00A490968B1FBF0F068
:1011200000F0BFFB48B9102C07D200222146501E08
:1011300000F05EF800206C6070BD012070BD000002
:101140000400002010000020214808B5816941F00A
:1011500001018161816901F001010091C16941F0E2
:101160008051C161C06900F080500090032000F000
:101170005FF8002211466FF00B0000F039F80022F2
:1011800011466FF00A0000F033F8002211466FF0AC
:10119000090000F02DF800221146501F00F028F839
:1011A00000221146101F00F023F800221146901E65
:1011B00000F01EF800221146501E00F019F80548F4
:1011C000416821F0E06141F00071416008BD00001C
:1011D000001002400000014000F01F020121914078
:1011E0004009800000F1E020C0F8001170470000C5
:1011F000F0B40E4B1B680C46C3F30223C3F1070582
:10120000042D00D90425191D072901D2002300E06F
:10121000DB1E012606FA05F1491E214099409E4039
:10122000761E16403143F0BC00F088BD0CED00E0A6
:10123000064900F0070208684FF6FF03184040EA2D
:101240000220034A10430860704700000CED00E0E4
:101250000000FA052DE9F047DFF83C8105460E460F
:10126000D8F8000000F00700B0420CD2D8F8001007
:1012700021F007013143C8F80010D8F8000000F051
:101280000700B04263D12878444C800705D56068D8
:10129000A96820F0F000084360602878C00745D0B6
:1012A0006868012816D02168022816D0890700290D
:1012B0004DDA616821F0030101436160FFF704FF2B
:1012C0006968074641F2883001290FD0022981461A
:1012D00019D027E021688903E9E78901E7E700BF22
:1012E000FFF7F2FEC11B494501D918E0814660684D
:1012F000C0F381000128F3D118E000BFFFF7E4FE3E
:10130000C11B49450BD86068C0F381000228F5D1A4
:101310000CE000BFFFF7D8FEC11B494502D90320EE
:10132000BDE8F087606810F00C0FF3D1D8F800101A
:10133000404601F00701B1420BD9016821F00701D5
:1013400031430160006800F00700B04201D0012085
:10135000E6E72878400705D56068E96820F4E06092
:10136000084360602878000706D56068296920F482
:10137000605040EAC100606000F03CF86168084AD3
:10138000C1F30311515CC840064908600020FFF713
:10139000BBFE0020C4E70000002002400010024015
:1013A000182C000810000020014800687047000059
:1013B000100000200448054900684968044AC1F348
:1013C0000221515CC840704710000020001002400C
:1013D000282C00080448054900684968044AC1F3FC
:1013E000C221515CC840704710000020001002402C
:1013F000282C000813A185B00FC98DE80F0015A097
:10140000154A00680490516801F00C00042804D0CB
:10141000082804D0114805B070471148FBE7C1F314
:101420008343C9031DF8030009D5516804AAC1F319
:101430004041515C0A4A5043B0FBF1F0EBE70949E7
:101440004843E8E702030405060708090A0B0C0DE8
:101450000E0F1010010200000010024000127A006E
:10146000001BB70000093D002DE9F84F0446007845
:10147000B94DC00748D06868C0F38100012807D083
:101480006868C0F38100022809D16868C00306D5E6
:101490002868800338D5606800286FD034E0606821
:1014A000B0F5803F0BD010B1B0F5A02F11D0286857
:1014B00020F480302860286820F4802002E028682A
:1014C00040F480302860606888B1FFF7FDFD064673
:1014D00009E0286840F480202860F0E7FFF7F4FD79
:1014E000801B642875D828688003F7D50CE0FFF7C7
:1014F000EBFD064605E000BFFFF7E6FD801B642814
:10150000F0D828688003F7D42078944E80074FF0F5
:1015100001094FF000083BD5686810F00C0F07D0A8
:101520006868C0F38100022809D16868C00306D446
:101530002868800714D5206901281FD110E0206990
:10154000B0B1C6F80090FFF7BFFD074605E000BF49
:10155000FFF7BAFDC01B0228C4D828688007F7D55A
:101560002868616920F0F80040EAC10028600FE0B7
:10157000C6F80080FFF7A8FD074606E0E9E000BFD7
:10158000FFF7A2FDC01B022823D828688007F7D4E4
:10159000207800072CD57248A169D9B1C0F8009015
:1015A000FFF792FD074604E0FFF78EFDC01B0228FF
:1015B0000FD8686A8007F7D56A484FF4FA51006877
:1015C000B0FBF1F0009000BF0098411E0091FAD2EC
:1015D0000EE080E0C0F80080FFF776FD074604E0EB
:1015E000FFF772FDC01B022875D8686A8007F7D420
:1015F0002078400760D5E8690027C00008D4E86972
:1016000040F08050E861E869012700F080500090C8
:1016100055480168C90513D40168834641F48071B7
:101620000160FFF751FD824606E000BFFFF74CFD69
:10163000A0EB0A0064284ED8DBF80000C005F5D501
:10164000E06801280AD008B1052813D0286A20F0E4
:1016500001002862286A20F0040002E0286A40F0B5
:1016600001002862E06841F2883B98B1FFF72CFD49
:1016700082460BE0286A40F004002862EEE700BFD3
:10168000FFF722FDA0EB0A0159455AD8286A8007C6
:10169000F6D50CE0FFF718FD824605E0FFF714FDD4
:1016A000A0EB0A0159454CD8286A8007F6D41FB12F
:1016B000E86920F08050E861E06988B36968C1F3A7
:1016C0008101022945D00228C6F8608004D0FFF7C6
:1016D000FBFC044638E034E0FFF7F6FC074604E084
:1016E000FFF7F2FCC01B02282BD828688001F7D432
:1016F000206AB0F5803F05D16868A16820F4003009
:1017000008436860D4E908010843696821F474114A
:1017100008436860C6F86090FFF7D6FC044606E010
:1017200015E000BFFFF7D0FC001B022809D828688D
:101730008001F7D50BE000BFFFF7C6FC001B0228B5
:1017400002D90320BDE8F88F28688001F4D4002076
:10175000F8E70120F6E700000010024000004242D6
:1017600080044242100000200070004070B5040068
:1017700005D00025A56294F8510010B104E00120C5
:1017800070BD204600F034F8022084F85100206833
:10179000016821F040010160D4E901010843D4E966
:1017A00003121143084361690843218B01F400715E
:1017B0000843E1690843216A0843A16A0843216894
:1017C0000860A069042101EA1040616A08432168A9
:1017D00048602168E06A08612068C16921F40061FD
:1017E000C1616565012084F85100002070BD0000D2
:1017F00030B505460068184985B0884229D1174898
:10180000816941F4805181618069694600F48050AA
:101810000490A02000900220019003200390104823
:10182000FFF76AFB104C0F48002120601020C4E92C
:1018300001018020C4E903016161A1612046E161E9
:10184000FFF7FAFA18B1782108A000F09AFCAC640E
:10185000656205B030BD000000300140001002405C
:101860000008014030000240F40100202E2E2F53CA
:1018700072632F73746D3332663178785F68616C90
:101880005F6D73702E6300004FF0E021042808693B
:1018900003D020F004000861704740F00400FAE72C
:1018A000704710B5401EB0F1807F01D3012010BDFC
:1018B0004FF0E02460610F21601700F03FFA002034
:1018C000A06107202061002010BD10B5FFF7E8FFE0
:1018D00010BD704770B5026804461068D16853693E
:1018E00010F00F0F50D003F0010501F4907635434E
:1018F0005DD0C20705D0CA0503D5E26B42F00102F4
:10190000E263420705D5DA0703D0E26B42F0020238
:10191000E263820705D5DA0703D0E26B42F00402E6
:10192000E263020705D5DA0703D0E26B42F0080252
:10193000E263E26B002A33D0800604D5880602D524
:10194000204600F081FA20684069E16BC0F3801006
:10195000090700D428B3204600F068FA20684169DE
:1019600049061AD5416921F040014161606BA0B17F
:101970001B494163606BFFF769F9002810D0606B69
:10198000416BBDE870400847830610D58B060ED525
:101990002046BDE8704000F057BA2046FFF799FF97
:1019A00070BD2046FFF795FF0020E06370BD030681
:1019B00006D50B0604D52046BDE8704000F048BBB4
:1019C0004006F3D54806F1D5D168204621F0400104
:1019D000D160202184F8391000F043F970BD000077
:1019E0001D1E000870B5040004D094F839000025CD
:1019F00010B106E0012070BD84F83850204600F098
:101A000023F8242084F839002068C16821F40051AB
:101A1000C160204600F064FA2068016921F4904119
:101A200001612068416921F02A0141612068C16893
:101A300041F40051C160E563202084F8390084F846
:101A40003A00002070BD000070B5274E03680024E6
:101A5000264902200322264D86B0B3421ED18B694F
:101A600043F480438B618969039201F480410491BE
:101A70000102CDE9001069462846FFF73DFA281516
:101A8000CDE90004694628460294FFF735FA0022A2
:101A900011462520FFF7ACFB252020E0154EB34270
:101AA0001FD1CB6943F40033CB61C969039201F4C0
:101AB000003104910421CDE9001069462846FFF762
:101AC0001BFA0820CDE90004694628460294FFF776
:101AD00013FA002211462620FFF78AFB2620FFF783
:101AE0007BFB06B070BD00000038014000100240D2
:101AF000000801400044004090F83A30202B22D1E9
:101B0000F9B1F2B190F83830012B1CD08162828596
:101B1000C2850021C163222280F83A2080F8381063
:101B20000168CA6842F48072CA6001684A6942F07A
:101B300001024A610068C16841F02001C1600020D3
:101B400070470120704702207047000030B40068E1
:101B5000114988421DD11148B0F8001440F2FF32FB
:101B6000C1F30E0191420ED20D490B78B0F800146A
:101B7000B0F80024C1F30E014418491C61F30E02B1
:101B8000A0F80024237030BC012205490548FFF766
:101B9000B3BF30BC70470000004400403802002052
:101BA00015000020B40000202DE9F843044690F809
:101BB00039001F4616460D46202850D1A5B19EB1CA
:101BC00094F8380001284AD0012084F838004FF0FA
:101BD0000008C4F83C80212084F83900FFF774FA2B
:101BE000A6848146E68426E00120BDE8F883E08CE7
:101BF000401EE084A0684B46B0F5805F4FF00002C5
:101C00004FF080012046009703D000F052FAE8B967
:101C10000DE000F04EFAC8B928882168C0F308002A
:101C20004860206908B16D1C05E0AD1C03E0216827
:101C300015F8010B4860E08C0028D8D14B460022F3
:101C400040212046009700F034FA08B10320CCE789
:101C5000202084F8390084F838800020C5E702206D
:101C6000C3E77047FEE700001F4810B5816986B0E2
:101C700041F020018161816901F0200104918169B5
:101C800041F004018161816901F0040104918169DD
:101C900041F0080181618069144C00F00800049053
:101CA000012240212046FFF70AFA08200090104840
:101CB00001900220029069462046FFF71DF940205E
:101CC0000121CDE900010020CDE90201694620464D
:101CD000FFF712F9002211460920FFF789FA0920BF
:101CE000FFF77AFA06B010BD00100240000C014068
:101CF000000011100F4810B50D4901604FF48271BA
:101D00004160002102228160C0E903120122426188
:101D1000520282611022C0E90721416281620A21D8
:101D2000C162FFF723FD002800D0FEE710BD0000D0
:101D3000003001401C000020FEE770470907090E33
:101D4000002806DA00F00F0000F1E02080F8141DF2
:101D5000704700F1E02080F800147047704770472A
:101D600010B5FFF7B7F9BDE81040FFF7AEBD30B5CD
:101D70008FB00224012004900094102005900025CB
:101D80004FF43010CDE9085007946846FFF76CFB1C
:101D900000B1FEE70AA90F2081E831004FF480600E
:101DA0000D900E9002210AA8FFF754FA00B1FEE749
:101DB000FFF7FAFA4FF47A71B0FBF1F0FFF771FD1B
:101DC0000420FFF761FD00221146501EFFF710FAB4
:101DD0000FB030BD0D48016841F00101016041685C
:101DE0000B4A1140416001680A4A114001600168D4
:101DF00021F480210160416821F4FE0141604FF42B
:101E00001F0181600449C003086070470010024050
:101E10000000FFF8FFFFF6FE08ED00E010B5406A95
:101E20000021C185C184FFF754FD10BD0168CA6857
:101E300022F49072CA6001684A6922F001024A6184
:101E4000202180F83A10704710B590F83A102229F6
:101E500001D0022010BD8168B1F5805F11D0016909
:101E6000002901681FD0496801F07F03816A4A1C7C
:101E700082620B70C18D491E0904090CC18518D0FE
:101E80002BE00269816A002A0268526805D0D2B24A
:101E90000A80816A491C8162ECE7C2F308020A8069
:101EA000816A891CF7E74A68816A4B1C83620A7061
:101EB000E0E70168CA6822F02002CA600168CA68C7
:101EC00022F48072CA6001684A6922F001024A6104
:101ED000202180F83A10FFF739FE002010BD0000E5
:101EE0002DE9F041044600680169E26821F440519F
:101EF000114301612169A0680843616908432168B1
:101F0000CA6841F20C639A430243CA60206841697F
:101F1000A26921F44071114341614C492068642554
:101F2000322688423CD1FFF755FA00EBC00101EBA5
:101F3000001061688900B0FBF1F7FFF74BFA00EB86
:101F4000C00101EB00106168B0468900B0FBF1F000
:101F5000B0FBF5F06FF01801484307EB800106EB8A
:101F60000110B0FBF5F000F0F006FFF733FA00EBDC
:101F7000C00101EB001061688900B0FBF1F0B0FB1B
:101F8000F5F006EB0016FFF725FA00EBC00101EBB8
:101F9000001061688900B0FBF1F7FFF71BFA3BE026
:101FA000FFF708FA00EBC00101EB0010616889003F
:101FB000B0FBF1F7FFF7FEF900EBC00101EB0010F9
:101FC0006168B0468900B0FBF1F0B0FBF5F06FF04E
:101FD0001801484307EB800106EB0110B0FBF5F058
:101FE00000F0F006FFF7E6F900EBC00101EB00108E
:101FF00061688900B0FBF1F0B0FBF5F006EB00166C
:10200000FFF7D8F900EBC00101EB0010616889000F
:10201000B0FBF1F7FFF7CEF900EBC00101EB0010C8
:1020200061688900B0FBF1F0B0FBF5F06FF01801CA
:10203000484307EB800108EB0110B0FBF5F0216885
:1020400000F00F0030448860BDE8F08100380140A6
:1020500090F83910212901D0022070478168B1F52C
:10206000805F016A0BD04A1C0262026809785160E5
:10207000C18C491E0904090CC1840ED017E00988DF
:102080000268C1F30801516001690029016A02D0A8
:10209000491C0162ECE7891CFBE70168CA6822F071
:1020A0008002CA600068C16841F04001C160002040
:1020B00070472DE9F041984617460E460446069DA6
:1020C0001DE0681C1BD02DB1FEF7FEFFA0EB080041
:1020D000A84214D92068C16821F4D071C160206879
:1020E000416921F001014161202084F8390084F820
:1020F0003A00002084F838000320BDE8F081206811
:10210000006836EA000004D00020B842D9D0002090
:10211000F3E70120F9E700000148FFF7DBBB00000F
:102120007400002010B50E48FFF7D4FB0C4800687F
:10213000C068C00612D50B48B0F8001441F4004145
:10214000A0F80014084800680849087008A105486C
:10215000FDF7F8FF00B101200849087010BD00002C
:10216000B400002038020020044400401500002084
:10217000434C4F5345440D0A00000000020000206C
:10218000FEE7FEE70FB4054B10B503A9044A029819
:1021900000F004F910BC5DF814FB0000ED2A000803
:1021A000180000200FB4084B10B504A902AA039828
:1021B00000F0F4F8044602A9002000F091FC20464B
:1021C00010BC5DF814FB0000E12A00087CB5044651
:1021D00000201D46164600290BD0491ECDE90041BE
:1021E000044B6A462946304600F0D8F8009A002190
:1021F00011707CBDCB2A000802E008C8121F08C17C
:10220000002AFAD170477047002001E001C1121F77
:10221000002AFBD1704700002DE9FF5F82B000214A
:10222000DDE90430020DDDF840B0034318D044F678
:102230001050A2F2FF3242431514119801281FD00A
:10224000A5EB0B00401C5FEA000A4FF000064E4F62
:10225000DFF83891B046504615D5CAF1000413E0B6
:10226000119801244AA3012801D16FEA0B010298B9
:10227000119AC0E90031C0E9024206B0BDE8F09F02
:10228000CBF10000DFE704460021404A491842EB49
:102290000450CDE9001012E0E00707D032463B467B
:1022A00040464946FEF74EF88046894632463B4650
:1022B00010461946FEF746F806460F466410002CF5
:1022C000EAD1DDE90401DDE90023BAF1000F06DA05
:1022D000FEF738F842464B46FEF734F805E0FEF7C5
:1022E000A3F842464B46FEF79FF804460E460022EE
:1022F000284BFEF721F903D84FF0FF30014607E0E5
:102300000022254B20463146FDF775FFFEF7FBF80E
:10231000102409E0002C0ADB0A220023FDF73AFF13
:10232000039B30321A55641E50EA0102F2D1641C3C
:10233000039AC4F111031444119A012A03D0012213
:1023400008430DD10AE0084304D000204FF0110BE0
:10235000119072E7A3EB0B056D1E0DE05B4504DDEC
:102360004FF0000205F1010504E003DA4FF000022E
:10237000A5F10105002AECD002981199C0E90231BB
:10238000C0E9004579E70000000014400000F03F7C
:10239000300000000000F0430000E03F2DE9FF4F57
:1023A00095B09B468946064600250FE2252877D141
:1023B00000242746F84A0121059400E0044316F85A
:1023C000013F203B01FA03F01042F7D130782A2870
:1023D00011D06FF02F033078A0F13002092A16D8FF
:1023E000059A44F0020402EB820203EB420210441D
:1023F000761C0590EFE759F8042B0592002A03DAC2
:10240000504244F40054059044F00204761C3078A5
:102410002E2816D116F8010F44F004042A280DD0F6
:102420006FF02F023078A0F13003092B09D807EBA9
:10243000870302EB4303C718761CF3E759F8047BC4
:10244000761C30786C280FD006DC4C2817D0682812
:102450000DD06A2814D104E0742810D07A280FD146
:102460000DE044F400140AE044F4801401E044F464
:1024700040147278824202D104F58014761C761CD6
:10248000307866280BD013DC582877D009DC002878
:1024900075D04528F6D04628F4D047281AD19DE1BA
:1024A00018E0632835D0642879D0652812D195E1E9
:1024B000702873D008DC6728F1D069286FD06E28A7
:1024C0000DD06F2806D1B5E073282CD0752875D0B3
:1024D000782874D05A46179990476D1C75E1C4F35B
:1024E0000250022809D003280DD0D9F80010042882
:1024F0000DD00D6009F1040967E1D9F80010EA1761
:10250000C1E90052F6E7D9F800100D80F2E70D702E
:10251000F0E719F8041B8DF8001000208DF8010079
:10252000EA46012003E059F804AB4FF0FF306107A1
:102530004FF0000102D40DE008F101018846B942D4
:102540000FDA8045F8DB1AF808100029F4D108E00A
:1025500008F1010188468142FADB1AF808100029C7
:10256000F6D105985B46A0EB080721463846179A36
:1025700000F094FA284400EB080507E04DE029E15B
:102580000DE01AF8010B5A4617999047B8F1010867
:10259000F7D25B4621463846179A13E142E00A22F9
:1025A0000092C4F302524FF0000A022A08D059F8F0
:1025B00004CB032A4FEAEC710AD00DE029E02AE0AF
:1025C00009F1070121F00702F2E802C1914609E092
:1025D0000FFA8CFC4FEAEC71042A03D14FFA8CFC01
:1025E0004FEAEC71002907DA0A460021DCF1000C01
:1025F00061EB02012D2202E0220504D52B228DF889
:102600000420012203E0E20701D02022F7E79046F0
:1026100059E00A2102E010220DE010214FF0000ADB
:1026200000910BE010224FF0000A44F00404082748
:10263000009203E008224FF0000A0092C4F3025215
:10264000022A05D059F804CB0021032A08D009E05A
:1026500009F1070121F00702F2E802C1914605E005
:102660001FFA8CFC042A01D10CF0FF0C4FF000087B
:10267000220728D5702806D0009B83F0100353EA68
:102680000A0305D00EE040228DF80420012208E064
:102690005CEA010206D030228DF804208DF8050096
:1026A00002229046009B83F0080353EA0A030AD1F2
:1026B0005CEA010201D1620705D530228DF80420C1
:1026C0004FF001087F1E582804D034A003900EA8B4
:1026D00002900DE036A0F9E753466046009AFDF7F8
:1026E00059FD84460398825C0298401E0290027055
:1026F0005CEA0100F0D1029806A9081A00F1200A4C
:10270000600702D524F4803400E00127574502DD3C
:10271000A7EB0A0000E0002000EB0A0100900598FA
:102720004144401A0590E00306D45B462146179ABF
:10273000059800F0B3F90544002706E001A85A46C1
:10274000C05D179990476D1C7F1C4745F6DBE00381
:102750000CD55B462146179A059800F09FF9054471
:1027600004E030205A46179990476D1C0099481E86
:1027700000900029F5DC08E0029802995A4600789A
:10278000491C0291179990476D1CBAF10001AAF1FA
:10279000010AF1DC65E10000092801003031323323
:1027A000343536373839616263646566000000008D
:1027B0003031323334353637383941424344454677
:1027C0000000000000F058F90544761C307800281D
:1027D0007FF4ECAD19B02846BDE8F08F620700D455
:1027E000062709F1070222F0070CFCE80223E14664
:1027F00003F000485FEA080C02D00FF2702C0DE0E5
:102800005FEA045C02D50FF2682C07E05FEAC47C43
:1028100002D00FF2602C01E0AFF2700C4FF0FF38E5
:1028200023F00043CDF850C065280CD006DC4528C5
:1028300009D046281DD047283DD13DE0662818D054
:1028400067287ED138E00021112F01DB112000E044
:10285000781CCDE9000106A90EA8FFF7DDFCDDE933
:102860000F010E9A03910021009207F1010A0491D1
:102870004DE04FF000400097CDE9011006A90EA8E9
:10288000FFF7CAFCDDE90F0203920E9B11990022AB
:10289000DDF80CA00093049211B9791C00EB010A39
:1028A000B7EB0A0004D4C0F1FF3007F1010A04902D
:1028B000AAEB0700019044E0012F00DA0127002174
:1028C000112F01DD112000E03846CDE9000106A9F5
:1028D0000EA8FFF7A1FCDDE90F010E9A039100217C
:1028E00004910092BA4621070CD40399514500DAAD
:1028F0008A46BAF1010F05DD009AAAF10101515C87
:10290000302908D0B84202DA10F1040F06DA0121AA
:10291000CDE9011015E0AAF10101E9E7002805DC85
:10292000049901440491AAEB000102E0411C5145C5
:1029300000DD8A460499401A401C01904FF0004087
:102940000290200704D40198504501DBCDF80480A3
:1029500000208DF84F0002980DF14F07B0F1004FA5
:1029600025D02B200E9002984FF0020800280CDA98
:10297000404202902D200E9007E00A210298FDF7B8
:10298000F3FB3031029007F8011DB8F10001A8F106
:102990000108F2DC02980028EFD1791E0E98087029
:1029A000307800F0200040F0450007F8020D12A832
:1029B000C01B00F107081498007800B1012000EB5B
:1029C0000A01019801EBE07105984144401A401E4C
:1029D0000590E00306D45B462146179A059800F05F
:1029E0005DF805441498007818B15A461799904735
:1029F0006D1CE00324D55B462146179A059800F02C
:102A00004DF805441CE00498002807DBDDE90301CC
:102A1000884203DD0098405C179901E01799302047
:102A20005A469047049805F10105401C049001980E
:102A3000401E019004D12E205A46179990476D1CD4
:102A4000BAF10001AAF1010ADDDC05E017F8010B7B
:102A50005A46179990476D1CB8F10001A8F101087A
:102A6000F4DC5B462146179A0598ABE62D00000082
:102A70002B000000200000002DE9F0410446002555
:102A80001E461746880404D405E039462020B04786
:102A90006D1C641EF9D52846BDE8F0812DE9F04192
:102AA000044600251E469046C80301D5302700E0A5
:102AB0002027880404D505E041463846B0476D1C00
:102AC000641EF9D52846BDE8F0814A68002A06D080
:102AD0000A68531C0B6010704868401E48607047BD
:102AE0000A68531C0B6010707047000013B54FF656
:102AF000FF73012269460248FFF756F800981CBD93
:102B00007400002008B5FEF7EDFAFFF730F9FFF783
:102B1000ABF82C48416941F0010141614069002254
:102B200000F00100009011460D20FEF761FB0D2022
:102B3000FEF752FBFFF7DEF8244823494FF4E13556
:102B400000240160C0E901540C26C460C0E90446B9
:102B50008461C461FEF746FF00B1FEE71B481C49D3
:102B600040300160C0E90154C460C0E9044684619A
:102B7000C461FEF737FF00B1FEE714480122154992
:102B80004030FEF7B9FF144D144E4FF47A77287891
:102B900028B113A0FFF7F6FAFDF712FF2C703846A4
:102BA000FEF77CF9308814A1401C82B207483280BD
:102BB0008030FFF7F7FA054916A08031FFF7E2FAF7
:102BC000E5E70000001002400038014074000020DA
:102BD00000440040150000201400002000000020E8
:102BE0007563536D617274436F6E666967466C619D
:102BF00067203D203100000025643A7573617274CE
:102C00005F64656275675F746573742E2E2E0D0A9E
:102C1000000000002573000000000000000000001C
:102C20000102030406070809000000000102030472
:102C3000502C0008000000201C000000F8210008B3
:102C40006C2C00081C000020240A00000822000848
:102C50000000000001000000100000000000000063
:0C2C600000A24A04000000000000000078
:04000005080000ED02
:00000001FF
